{
  "_format": "hh-sol-artifact-1",
  "contractName": "crowdfunding",
  "sourceName": "contracts/crowdfunding.sol",
  "abi": [
    {
      "inputs": [
        {
          "internalType": "uint256",
          "name": "_projectTax",
          "type": "uint256"
        }
      ],
      "stateMutability": "nonpayable",
      "type": "constructor"
    },
    {
      "anonymous": false,
      "inputs": [
        {
          "indexed": false,
          "internalType": "uint256",
          "name": "id",
          "type": "uint256"
        },
        {
          "indexed": false,
          "internalType": "string",
          "name": "actionType",
          "type": "string"
        },
        {
          "indexed": true,
          "internalType": "address",
          "name": "executor",
          "type": "address"
        },
        {
          "indexed": false,
          "internalType": "uint256",
          "name": "timestamp",
          "type": "uint256"
        }
      ],
      "name": "Action",
      "type": "event"
    },
    {
      "inputs": [
        {
          "internalType": "uint256",
          "name": "id",
          "type": "uint256"
        }
      ],
      "name": "backProject",
      "outputs": [
        {
          "internalType": "bool",
          "name": "",
          "type": "bool"
        }
      ],
      "stateMutability": "payable",
      "type": "function"
    },
    {
      "inputs": [
        {
          "internalType": "uint256",
          "name": "",
          "type": "uint256"
        },
        {
          "internalType": "uint256",
          "name": "",
          "type": "uint256"
        }
      ],
      "name": "backersOf",
      "outputs": [
        {
          "internalType": "address",
          "name": "owner",
          "type": "address"
        },
        {
          "internalType": "uint256",
          "name": "contribution",
          "type": "uint256"
        },
        {
          "internalType": "uint256",
          "name": "timestamp",
          "type": "uint256"
        },
        {
          "internalType": "bool",
          "name": "refunded",
          "type": "bool"
        }
      ],
      "stateMutability": "view",
      "type": "function"
    },
    {
      "inputs": [],
      "name": "balance",
      "outputs": [
        {
          "internalType": "uint256",
          "name": "",
          "type": "uint256"
        }
      ],
      "stateMutability": "view",
      "type": "function"
    },
    {
      "inputs": [
        {
          "internalType": "uint256",
          "name": "_taxpct",
          "type": "uint256"
        }
      ],
      "name": "changeTax",
      "outputs": [],
      "stateMutability": "nonpayable",
      "type": "function"
    },
    {
      "inputs": [
        {
          "internalType": "string",
          "name": "title",
          "type": "string"
        },
        {
          "internalType": "string",
          "name": "description",
          "type": "string"
        },
        {
          "internalType": "string",
          "name": "imageURL",
          "type": "string"
        },
        {
          "internalType": "uint256",
          "name": "cost",
          "type": "uint256"
        },
        {
          "internalType": "uint256",
          "name": "expiresAt",
          "type": "uint256"
        }
      ],
      "name": "createProject",
      "outputs": [
        {
          "internalType": "bool",
          "name": "",
          "type": "bool"
        }
      ],
      "stateMutability": "nonpayable",
      "type": "function"
    },
    {
      "inputs": [
        {
          "internalType": "uint256",
          "name": "id",
          "type": "uint256"
        }
      ],
      "name": "deleteProject",
      "outputs": [
        {
          "internalType": "bool",
          "name": "",
          "type": "bool"
        }
      ],
      "stateMutability": "nonpayable",
      "type": "function"
    },
    {
      "inputs": [
        {
          "internalType": "uint256",
          "name": "id",
          "type": "uint256"
        }
      ],
      "name": "getBackers",
      "outputs": [
        {
          "components": [
            {
              "internalType": "address",
              "name": "owner",
              "type": "address"
            },
            {
              "internalType": "uint256",
              "name": "contribution",
              "type": "uint256"
            },
            {
              "internalType": "uint256",
              "name": "timestamp",
              "type": "uint256"
            },
            {
              "internalType": "bool",
              "name": "refunded",
              "type": "bool"
            }
          ],
          "internalType": "struct crowdfunding.backerStruct[]",
          "name": "",
          "type": "tuple[]"
        }
      ],
      "stateMutability": "view",
      "type": "function"
    },
    {
      "inputs": [
        {
          "internalType": "uint256",
          "name": "id",
          "type": "uint256"
        }
      ],
      "name": "getProject",
      "outputs": [
        {
          "components": [
            {
              "internalType": "uint256",
              "name": "id",
              "type": "uint256"
            },
            {
              "internalType": "address",
              "name": "owner",
              "type": "address"
            },
            {
              "internalType": "string",
              "name": "title",
              "type": "string"
            },
            {
              "internalType": "string",
              "name": "description",
              "type": "string"
            },
            {
              "internalType": "string",
              "name": "imageURL",
              "type": "string"
            },
            {
              "internalType": "uint256",
              "name": "cost",
              "type": "uint256"
            },
            {
              "internalType": "uint256",
              "name": "raised",
              "type": "uint256"
            },
            {
              "internalType": "uint256",
              "name": "timestamp",
              "type": "uint256"
            },
            {
              "internalType": "uint256",
              "name": "expiresAt",
              "type": "uint256"
            },
            {
              "internalType": "uint256",
              "name": "backers",
              "type": "uint256"
            },
            {
              "internalType": "enum crowdfunding.statusEnum",
              "name": "status",
              "type": "uint8"
            }
          ],
          "internalType": "struct crowdfunding.projectStruct",
          "name": "",
          "type": "tuple"
        }
      ],
      "stateMutability": "view",
      "type": "function"
    },
    {
      "inputs": [],
      "name": "getprojects",
      "outputs": [
        {
          "components": [
            {
              "internalType": "uint256",
              "name": "id",
              "type": "uint256"
            },
            {
              "internalType": "address",
              "name": "owner",
              "type": "address"
            },
            {
              "internalType": "string",
              "name": "title",
              "type": "string"
            },
            {
              "internalType": "string",
              "name": "description",
              "type": "string"
            },
            {
              "internalType": "string",
              "name": "imageURL",
              "type": "string"
            },
            {
              "internalType": "uint256",
              "name": "cost",
              "type": "uint256"
            },
            {
              "internalType": "uint256",
              "name": "raised",
              "type": "uint256"
            },
            {
              "internalType": "uint256",
              "name": "timestamp",
              "type": "uint256"
            },
            {
              "internalType": "uint256",
              "name": "expiresAt",
              "type": "uint256"
            },
            {
              "internalType": "uint256",
              "name": "backers",
              "type": "uint256"
            },
            {
              "internalType": "enum crowdfunding.statusEnum",
              "name": "status",
              "type": "uint8"
            }
          ],
          "internalType": "struct crowdfunding.projectStruct[]",
          "name": "",
          "type": "tuple[]"
        }
      ],
      "stateMutability": "view",
      "type": "function"
    },
    {
      "inputs": [],
      "name": "owner",
      "outputs": [
        {
          "internalType": "address",
          "name": "",
          "type": "address"
        }
      ],
      "stateMutability": "view",
      "type": "function"
    },
    {
      "inputs": [],
      "name": "projectCount",
      "outputs": [
        {
          "internalType": "uint256",
          "name": "",
          "type": "uint256"
        }
      ],
      "stateMutability": "view",
      "type": "function"
    },
    {
      "inputs": [
        {
          "internalType": "uint256",
          "name": "",
          "type": "uint256"
        }
      ],
      "name": "projectExist",
      "outputs": [
        {
          "internalType": "bool",
          "name": "",
          "type": "bool"
        }
      ],
      "stateMutability": "view",
      "type": "function"
    },
    {
      "inputs": [],
      "name": "projectTax",
      "outputs": [
        {
          "internalType": "uint256",
          "name": "",
          "type": "uint256"
        }
      ],
      "stateMutability": "view",
      "type": "function"
    },
    {
      "inputs": [
        {
          "internalType": "address",
          "name": "",
          "type": "address"
        },
        {
          "internalType": "uint256",
          "name": "",
          "type": "uint256"
        }
      ],
      "name": "projectsof",
      "outputs": [
        {
          "internalType": "uint256",
          "name": "id",
          "type": "uint256"
        },
        {
          "internalType": "address",
          "name": "owner",
          "type": "address"
        },
        {
          "internalType": "string",
          "name": "title",
          "type": "string"
        },
        {
          "internalType": "string",
          "name": "description",
          "type": "string"
        },
        {
          "internalType": "string",
          "name": "imageURL",
          "type": "string"
        },
        {
          "internalType": "uint256",
          "name": "cost",
          "type": "uint256"
        },
        {
          "internalType": "uint256",
          "name": "raised",
          "type": "uint256"
        },
        {
          "internalType": "uint256",
          "name": "timestamp",
          "type": "uint256"
        },
        {
          "internalType": "uint256",
          "name": "expiresAt",
          "type": "uint256"
        },
        {
          "internalType": "uint256",
          "name": "backers",
          "type": "uint256"
        },
        {
          "internalType": "enum crowdfunding.statusEnum",
          "name": "status",
          "type": "uint8"
        }
      ],
      "stateMutability": "view",
      "type": "function"
    },
    {
      "inputs": [],
      "name": "stats",
      "outputs": [
        {
          "internalType": "uint256",
          "name": "totalProjects",
          "type": "uint256"
        },
        {
          "internalType": "uint256",
          "name": "totalBacking",
          "type": "uint256"
        },
        {
          "internalType": "uint256",
          "name": "totalDonation",
          "type": "uint256"
        }
      ],
      "stateMutability": "view",
      "type": "function"
    },
    {
      "inputs": [
        {
          "internalType": "uint256",
          "name": "id",
          "type": "uint256"
        },
        {
          "internalType": "string",
          "name": "_title",
          "type": "string"
        },
        {
          "internalType": "string",
          "name": "_description",
          "type": "string"
        },
        {
          "internalType": "string",
          "name": "_imageURL",
          "type": "string"
        },
        {
          "internalType": "uint256",
          "name": "_expireAt",
          "type": "uint256"
        }
      ],
      "name": "updateProject",
      "outputs": [
        {
          "internalType": "bool",
          "name": "",
          "type": "bool"
        }
      ],
      "stateMutability": "nonpayable",
      "type": "function"
    }
  ],
  "bytecode": "0x60806040523480156200001157600080fd5b5060405162003e8738038062003e878339818101604052810190620000379190620000c5565b336000806101000a81548173ffffffffffffffffffffffffffffffffffffffff021916908373ffffffffffffffffffffffffffffffffffffffff1602179055508060018190555050620000f7565b600080fd5b6000819050919050565b6200009f816200008a565b8114620000ab57600080fd5b50565b600081519050620000bf8162000094565b92915050565b600060208284031215620000de57620000dd62000085565b5b6000620000ee84828501620000ae565b91505092915050565b613d8080620001076000396000f3fe6080604052600436106100f35760003560e01c80639f39a1941161008a578063d24cd3ec11610059578063d24cd3ec14610375578063d80528ae146103a0578063f0f3f2c8146103cd578063f9285aa01461040a576100f3565b80639f39a19414610296578063a5393a05146102c6578063b69ef8a81461030d578063c9168b7214610338576100f3565b80634ebfb3cb116100c65780634ebfb3cb146101c65780638593054b146101f15780638da5cb5b1461022e5780639a3fa8c714610259576100f3565b8063056c29ee146100f857806336fbad26146101355780633e45c8af146101605780634cd0cb2814610189575b600080fd5b34801561010457600080fd5b5061011f600480360381019061011a919061255f565b61044a565b60405161012c9190612649565b60405180910390f35b34801561014157600080fd5b5061014a610928565b6040516101579190612673565b60405180910390f35b34801561016c57600080fd5b506101876004803603810190610182919061268e565b61092e565b005b34801561019557600080fd5b506101b060048036038101906101ab919061268e565b6109c6565b6040516101bd9190612649565b60405180910390f35b3480156101d257600080fd5b506101db610bc4565b6040516101e891906129c0565b60405180910390f35b3480156101fd57600080fd5b506102186004803603810190610213919061268e565b610ea7565b6040516102259190612649565b60405180910390f35b34801561023a57600080fd5b50610243610ec7565b60405161025091906129f1565b60405180910390f35b34801561026557600080fd5b50610280600480360381019061027b9190612a0c565b610eeb565b60405161028d9190612649565b60405180910390f35b6102b060048036038101906102ab919061268e565b611405565b6040516102bd9190612649565b60405180910390f35b3480156102d257600080fd5b506102ed60048036038101906102e89190612b07565b6118bc565b6040516103049b9a99989796959493929190612ba0565b60405180910390f35b34801561031957600080fd5b50610322611af8565b60405161032f9190612673565b60405180910390f35b34801561034457600080fd5b5061035f600480360381019061035a919061268e565b611afe565b60405161036c9190612d73565b60405180910390f35b34801561038157600080fd5b5061038a611bf5565b6040516103979190612673565b60405180910390f35b3480156103ac57600080fd5b506103b5611bfb565b6040516103c493929190612d95565b60405180910390f35b3480156103d957600080fd5b506103f460048036038101906103ef919061268e565b611c13565b6040516104019190612ec9565b60405180910390f35b34801561041657600080fd5b50610431600480360381019061042c9190612eeb565b611f33565b6040516104419493929190612f2b565b60405180910390f35b60008086511161048f576040517f08c379a000000000000000000000000000000000000000000000000000000000815260040161048690612fbc565b60405180910390fd5b60008551116104d3576040517f08c379a00000000000000000000000000000000000000000000000000000000081526004016104ca90613028565b60405180910390fd5b6000845111610517576040517f08c379a000000000000000000000000000000000000000000000000000000000815260040161050e90613094565b60405180910390fd5b6000831161055a576040517f08c379a000000000000000000000000000000000000000000000000000000000815260040161055190613100565b60405180910390fd5b61056261234d565b60025481600001818152505033816020019073ffffffffffffffffffffffffffffffffffffffff16908173ffffffffffffffffffffffffffffffffffffffff1681525050868160400181905250858160600181905250848160800181905250838160a0018181525050428160e0018181525050828161010001818152505060078190806001815401808255809150506001900390600052602060002090600b02016000909190919091506000820151816000015560208201518160010160006101000a81548173ffffffffffffffffffffffffffffffffffffffff021916908373ffffffffffffffffffffffffffffffffffffffff1602179055506040820151816002019081610672919061332c565b506060820151816003019081610688919061332c565b50608082015181600401908161069e919061332c565b5060a0820151816005015560c0820151816006015560e082015181600701556101008201518160080155610120820151816009015561014082015181600a0160006101000a81548160ff021916908360048111156106ff576106fe6127b6565b5b02179055505050600160086000600254815260200190815260200160002060006101000a81548160ff021916908315150217905550600960003373ffffffffffffffffffffffffffffffffffffffff1673ffffffffffffffffffffffffffffffffffffffff1681526020019081526020016000208190806001815401808255809150506001900390600052602060002090600b02016000909190919091506000820151816000015560208201518160010160006101000a81548173ffffffffffffffffffffffffffffffffffffffff021916908373ffffffffffffffffffffffffffffffffffffffff1602179055506040820151816002019081610803919061332c565b506060820151816003019081610819919061332c565b50608082015181600401908161082f919061332c565b5060a0820151816005015560c0820151816006015560e082015181600701556101008201518160080155610120820151816009015561014082015181600a0160006101000a81548160ff021916908360048111156108905761088f6127b6565b5b021790555050506001600460000160008282546108ad919061342d565b925050819055503373ffffffffffffffffffffffffffffffffffffffff167faee8e5d3bbb2f71a951b5632cee20f7ac487b9f8ab4f66a236f7694b13af7c6a600260008154809291906108ff90613461565b91905055426040516109129291906134f5565b60405180910390a2600191505095945050505050565b60025481565b60008054906101000a900473ffffffffffffffffffffffffffffffffffffffff1673ffffffffffffffffffffffffffffffffffffffff163373ffffffffffffffffffffffffffffffffffffffff16146109bc576040517f08c379a00000000000000000000000000000000000000000000000000000000081526004016109b3906135a3565b60405180910390fd5b8060018190555050565b6000600782815481106109dc576109db6135c3565b5b90600052602060002090600b020160010160009054906101000a900473ffffffffffffffffffffffffffffffffffffffff1673ffffffffffffffffffffffffffffffffffffffff163373ffffffffffffffffffffffffffffffffffffffff1614610a7b576040517f08c379a0000000000000000000000000000000000000000000000000000000008152600401610a729061363e565b60405180910390fd5b60006004811115610a8f57610a8e6127b6565b5b60078381548110610aa357610aa26135c3565b5b90600052602060002090600b0201600a0160009054906101000a900460ff166004811115610ad457610ad36127b6565b5b14610b14576040517f08c379a0000000000000000000000000000000000000000000000000000000008152600401610b0b906136aa565b60405180910390fd5b600360078381548110610b2a57610b296135c3565b5b90600052602060002090600b0201600a0160006101000a81548160ff02191690836004811115610b5d57610b5c6127b6565b5b0217905550610b6b82611fad565b3373ffffffffffffffffffffffffffffffffffffffff167faee8e5d3bbb2f71a951b5632cee20f7ac487b9f8ab4f66a236f7694b13af7c6a8342604051610bb3929190613716565b60405180910390a260019050919050565b60606007805480602002602001604051908101604052809291908181526020016000905b82821015610e9e57838290600052602060002090600b020160405180610160016040529081600082015481526020016001820160009054906101000a900473ffffffffffffffffffffffffffffffffffffffff1673ffffffffffffffffffffffffffffffffffffffff1673ffffffffffffffffffffffffffffffffffffffff168152602001600282018054610c7c9061314f565b80601f0160208091040260200160405190810160405280929190818152602001828054610ca89061314f565b8015610cf55780601f10610cca57610100808354040283529160200191610cf5565b820191906000526020600020905b815481529060010190602001808311610cd857829003601f168201915b50505050508152602001600382018054610d0e9061314f565b80601f0160208091040260200160405190810160405280929190818152602001828054610d3a9061314f565b8015610d875780601f10610d5c57610100808354040283529160200191610d87565b820191906000526020600020905b815481529060010190602001808311610d6a57829003601f168201915b50505050508152602001600482018054610da09061314f565b80601f0160208091040260200160405190810160405280929190818152602001828054610dcc9061314f565b8015610e195780601f10610dee57610100808354040283529160200191610e19565b820191906000526020600020905b815481529060010190602001808311610dfc57829003601f168201915b505050505081526020016005820154815260200160068201548152602001600782015481526020016008820154815260200160098201548152602001600a820160009054906101000a900460ff166004811115610e7957610e786127b6565b5b6004811115610e8b57610e8a6127b6565b5b8152505081526020019060010190610be8565b50505050905090565b60086020528060005260406000206000915054906101000a900460ff1681565b60008054906101000a900473ffffffffffffffffffffffffffffffffffffffff1681565b600060078681548110610f0157610f006135c3565b5b90600052602060002090600b020160010160009054906101000a900473ffffffffffffffffffffffffffffffffffffffff1673ffffffffffffffffffffffffffffffffffffffff163373ffffffffffffffffffffffffffffffffffffffff1614610fa0576040517f08c379a0000000000000000000000000000000000000000000000000000000008152600401610f979061379e565b60405180910390fd5b6008600087815260200190815260200160002060009054906101000a900460ff16611000576040517f08c379a0000000000000000000000000000000000000000000000000000000008152600401610ff79061380a565b60405180910390fd5b6000855111611044576040517f08c379a000000000000000000000000000000000000000000000000000000000815260040161103b90613876565b60405180910390fd5b6000845111611088576040517f08c379a000000000000000000000000000000000000000000000000000000000815260040161107f906138e2565b60405180910390fd5b60008351116110cc576040517f08c379a00000000000000000000000000000000000000000000000000000000081526004016110c39061394e565b60405180910390fd5b6000600787815481106110e2576110e16135c3565b5b90600052602060002090600b020160405180610160016040529081600082015481526020016001820160009054906101000a900473ffffffffffffffffffffffffffffffffffffffff1673ffffffffffffffffffffffffffffffffffffffff1673ffffffffffffffffffffffffffffffffffffffff16815260200160028201805461116c9061314f565b80601f01602080910402602001604051908101604052809291908181526020018280546111989061314f565b80156111e55780601f106111ba576101008083540402835291602001916111e5565b820191906000526020600020905b8154815290600101906020018083116111c857829003601f168201915b505050505081526020016003820180546111fe9061314f565b80601f016020809104026020016040519081016040528092919081815260200182805461122a9061314f565b80156112775780601f1061124c57610100808354040283529160200191611277565b820191906000526020600020905b81548152906001019060200180831161125a57829003601f168201915b505050505081526020016004820180546112909061314f565b80601f01602080910402602001604051908101604052809291908181526020018280546112bc9061314f565b80156113095780601f106112de57610100808354040283529160200191611309565b820191906000526020600020905b8154815290600101906020018083116112ec57829003601f168201915b505050505081526020016005820154815260200160068201548152602001600782015481526020016008820154815260200160098201548152602001600a820160009054906101000a900460ff166004811115611369576113686127b6565b5b600481111561137b5761137a6127b6565b5b81525050905085816040018190525084816060018190525083816080018190525082816101000181815250503373ffffffffffffffffffffffffffffffffffffffff167faee8e5d3bbb2f71a951b5632cee20f7ac487b9f8ab4f66a236f7694b13af7c6a88426040516113ef9291906134f5565b60405180910390a2600191505095945050505050565b6000803411611449576040517f08c379a0000000000000000000000000000000000000000000000000000000008152600401611440906139ba565b60405180910390fd5b6008600083815260200190815260200160002060009054906101000a900460ff166114a9576040517f08c379a00000000000000000000000000000000000000000000000000000000081526004016114a090613a26565b60405180910390fd5b600060048111156114bd576114bc6127b6565b5b600783815481106114d1576114d06135c3565b5b90600052602060002090600b0201600a0160009054906101000a900460ff166004811115611502576115016127b6565b5b14611542576040517f08c379a000000000000000000000000000000000000000000000000000000000815260040161153990613a92565b60405180910390fd5b600160046001016000828254611558919061342d565b925050819055503460046002016000828254611574919061342d565b9250508190555034600783815481106115905761158f6135c3565b5b90600052602060002090600b020160060160008282546115b0919061342d565b925050819055506001600783815481106115cd576115cc6135c3565b5b90600052602060002090600b020160090160008282546115ed919061342d565b92505081905550600a600083815260200190815260200160002060405180608001604052803373ffffffffffffffffffffffffffffffffffffffff16815260200134815260200142815260200160001515815250908060018154018082558091505060019003906000526020600020906004020160009091909190915060008201518160000160006101000a81548173ffffffffffffffffffffffffffffffffffffffff021916908373ffffffffffffffffffffffffffffffffffffffff160217905550602082015181600101556040820151816002015560608201518160030160006101000a81548160ff02191690831515021790555050503373ffffffffffffffffffffffffffffffffffffffff167faee8e5d3bbb2f71a951b5632cee20f7ac487b9f8ab4f66a236f7694b13af7c6a834260405161172f929190613afe565b60405180910390a26007828154811061174b5761174a6135c3565b5b90600052602060002090600b02016005015460078381548110611771576117706135c3565b5b90600052602060002090600b020160060154106118265760016007838154811061179e5761179d6135c3565b5b90600052602060002090600b0201600a0160006101000a81548160ff021916908360048111156117d1576117d06127b6565b5b0217905550600782815481106117ea576117e96135c3565b5b90600052602060002090600b0201600601546003600082825461180d919061342d565b9250508190555061181d8261214a565b600190506118b7565b6007828154811061183a576118396135c3565b5b90600052602060002090600b02016008015442106118b257600260078381548110611868576118676135c3565b5b90600052602060002090600b0201600a0160006101000a81548160ff0219169083600481111561189b5761189a6127b6565b5b02179055506118a982611fad565b600190506118b7565b600190505b919050565b600960205281600052604060002081815481106118d857600080fd5b90600052602060002090600b0201600091509150508060000154908060010160009054906101000a900473ffffffffffffffffffffffffffffffffffffffff16908060020180546119289061314f565b80601f01602080910402602001604051908101604052809291908181526020018280546119549061314f565b80156119a15780601f10611976576101008083540402835291602001916119a1565b820191906000526020600020905b81548152906001019060200180831161198457829003601f168201915b5050505050908060030180546119b69061314f565b80601f01602080910402602001604051908101604052809291908181526020018280546119e29061314f565b8015611a2f5780601f10611a0457610100808354040283529160200191611a2f565b820191906000526020600020905b815481529060010190602001808311611a1257829003601f168201915b505050505090806004018054611a449061314f565b80601f0160208091040260200160405190810160405280929190818152602001828054611a709061314f565b8015611abd5780601f10611a9257610100808354040283529160200191611abd565b820191906000526020600020905b815481529060010190602001808311611aa057829003601f168201915b50505050509080600501549080600601549080600701549080600801549080600901549080600a0160009054906101000a900460ff1690508b565b60035481565b6060600a6000838152602001908152602001600020805480602002602001604051908101604052809291908181526020016000905b82821015611bea57838290600052602060002090600402016040518060800160405290816000820160009054906101000a900473ffffffffffffffffffffffffffffffffffffffff1673ffffffffffffffffffffffffffffffffffffffff1673ffffffffffffffffffffffffffffffffffffffff16815260200160018201548152602001600282015481526020016003820160009054906101000a900460ff16151515158152505081526020019060010190611b33565b505050509050919050565b60015481565b60048060000154908060010154908060020154905083565b611c1b61234d565b6008600083815260200190815260200160002060009054906101000a900460ff16611c7b576040517f08c379a0000000000000000000000000000000000000000000000000000000008152600401611c7290613b86565b60405180910390fd5b60078281548110611c8f57611c8e6135c3565b5b90600052602060002090600b020160405180610160016040529081600082015481526020016001820160009054906101000a900473ffffffffffffffffffffffffffffffffffffffff1673ffffffffffffffffffffffffffffffffffffffff1673ffffffffffffffffffffffffffffffffffffffff168152602001600282018054611d199061314f565b80601f0160208091040260200160405190810160405280929190818152602001828054611d459061314f565b8015611d925780601f10611d6757610100808354040283529160200191611d92565b820191906000526020600020905b815481529060010190602001808311611d7557829003601f168201915b50505050508152602001600382018054611dab9061314f565b80601f0160208091040260200160405190810160405280929190818152602001828054611dd79061314f565b8015611e245780601f10611df957610100808354040283529160200191611e24565b820191906000526020600020905b815481529060010190602001808311611e0757829003601f168201915b50505050508152602001600482018054611e3d9061314f565b80601f0160208091040260200160405190810160405280929190818152602001828054611e699061314f565b8015611eb65780601f10611e8b57610100808354040283529160200191611eb6565b820191906000526020600020905b815481529060010190602001808311611e9957829003601f168201915b505050505081526020016005820154815260200160068201548152602001600782015481526020016008820154815260200160098201548152602001600a820160009054906101000a900460ff166004811115611f1657611f156127b6565b5b6004811115611f2857611f276127b6565b5b815250509050919050565b600a6020528160005260406000208181548110611f4f57600080fd5b9060005260206000209060040201600091509150508060000160009054906101000a900473ffffffffffffffffffffffffffffffffffffffff16908060010154908060020154908060030160009054906101000a900460ff16905084565b60005b600a600083815260200190815260200160002080549050811015612146576000600a60008481526020019081526020016000208281548110611ff557611ff46135c3565b5b906000526020600020906004020160000160009054906101000a900473ffffffffffffffffffffffffffffffffffffffff1690506000600a600085815260200190815260200160002083815481106120505761204f6135c3565b5b906000526020600020906004020160010154905061206e82826122d2565b6001600a60008681526020019081526020016000208481548110612095576120946135c3565b5b906000526020600020906004020160030160006101000a81548160ff02191690831515021790555042600a600086815260200190815260200160002084815481106120e3576120e26135c3565b5b90600052602060002090600402016002018190555060016004600101600082825461210e9190613ba6565b92505081905550806004600201600082825461212a9190613ba6565b925050819055505050808061213e90613461565b915050611fb0565b5050565b6000600782815481106121605761215f6135c3565b5b90600052602060002090600b020160060154905060006064600154836121869190613bda565b6121909190613c4b565b90506004600784815481106121a8576121a76135c3565b5b90600052602060002090600b0201600a0160006101000a81548160ff021916908360048111156121db576121da6127b6565b5b021790555061223a600784815481106121f7576121f66135c3565b5b90600052602060002090600b020160010160009054906101000a900473ffffffffffffffffffffffffffffffffffffffff1682846122359190613ba6565b6122d2565b61226460008054906101000a900473ffffffffffffffffffffffffffffffffffffffff16826122d2565b81600360008282546122769190613ba6565b925050819055503373ffffffffffffffffffffffffffffffffffffffff167faee8e5d3bbb2f71a951b5632cee20f7ac487b9f8ab4f66a236f7694b13af7c6a84426040516122c5929190613cc8565b60405180910390a2505050565b60008273ffffffffffffffffffffffffffffffffffffffff16826040516122f890613d35565b60006040518083038185875af1925050503d8060008114612335576040519150601f19603f3d011682016040523d82523d6000602084013e61233a565b606091505b505090508061234857600080fd5b505050565b60405180610160016040528060008152602001600073ffffffffffffffffffffffffffffffffffffffff1681526020016060815260200160608152602001606081526020016000815260200160008152602001600081526020016000815260200160008152602001600060048111156123c9576123c86127b6565b5b81525090565b6000604051905090565b600080fd5b600080fd5b600080fd5b600080fd5b6000601f19601f8301169050919050565b7f4e487b7100000000000000000000000000000000000000000000000000000000600052604160045260246000fd5b612436826123ed565b810181811067ffffffffffffffff82111715612455576124546123fe565b5b80604052505050565b60006124686123cf565b9050612474828261242d565b919050565b600067ffffffffffffffff821115612494576124936123fe565b5b61249d826123ed565b9050602081019050919050565b82818337600083830152505050565b60006124cc6124c784612479565b61245e565b9050828152602081018484840111156124e8576124e76123e8565b5b6124f38482856124aa565b509392505050565b600082601f8301126125105761250f6123e3565b5b81356125208482602086016124b9565b91505092915050565b6000819050919050565b61253c81612529565b811461254757600080fd5b50565b60008135905061255981612533565b92915050565b600080600080600060a0868803121561257b5761257a6123d9565b5b600086013567ffffffffffffffff811115612599576125986123de565b5b6125a5888289016124fb565b955050602086013567ffffffffffffffff8111156125c6576125c56123de565b5b6125d2888289016124fb565b945050604086013567ffffffffffffffff8111156125f3576125f26123de565b5b6125ff888289016124fb565b93505060606126108882890161254a565b92505060806126218882890161254a565b9150509295509295909350565b60008115159050919050565b6126438161262e565b82525050565b600060208201905061265e600083018461263a565b92915050565b61266d81612529565b82525050565b60006020820190506126886000830184612664565b92915050565b6000602082840312156126a4576126a36123d9565b5b60006126b28482850161254a565b91505092915050565b600081519050919050565b600082825260208201905092915050565b6000819050602082019050919050565b6126f081612529565b82525050565b600073ffffffffffffffffffffffffffffffffffffffff82169050919050565b6000612721826126f6565b9050919050565b61273181612716565b82525050565b600081519050919050565b600082825260208201905092915050565b60005b83811015612771578082015181840152602081019050612756565b60008484015250505050565b600061278882612737565b6127928185612742565b93506127a2818560208601612753565b6127ab816123ed565b840191505092915050565b7f4e487b7100000000000000000000000000000000000000000000000000000000600052602160045260246000fd5b600581106127f6576127f56127b6565b5b50565b6000819050612807826127e5565b919050565b6000612817826127f9565b9050919050565b6128278161280c565b82525050565b60006101608301600083015161284660008601826126e7565b5060208301516128596020860182612728565b5060408301518482036040860152612871828261277d565b9150506060830151848203606086015261288b828261277d565b915050608083015184820360808601526128a5828261277d565b91505060a08301516128ba60a08601826126e7565b5060c08301516128cd60c08601826126e7565b5060e08301516128e060e08601826126e7565b506101008301516128f56101008601826126e7565b5061012083015161290a6101208601826126e7565b5061014083015161291f61014086018261281e565b508091505092915050565b6000612936838361282d565b905092915050565b6000602082019050919050565b6000612956826126bb565b61296081856126c6565b935083602082028501612972856126d7565b8060005b858110156129ae578484038952815161298f858261292a565b945061299a8361293e565b925060208a01995050600181019050612976565b50829750879550505050505092915050565b600060208201905081810360008301526129da818461294b565b905092915050565b6129eb81612716565b82525050565b6000602082019050612a0660008301846129e2565b92915050565b600080600080600060a08688031215612a2857612a276123d9565b5b6000612a368882890161254a565b955050602086013567ffffffffffffffff811115612a5757612a566123de565b5b612a63888289016124fb565b945050604086013567ffffffffffffffff811115612a8457612a836123de565b5b612a90888289016124fb565b935050606086013567ffffffffffffffff811115612ab157612ab06123de565b5b612abd888289016124fb565b9250506080612ace8882890161254a565b9150509295509295909350565b612ae481612716565b8114612aef57600080fd5b50565b600081359050612b0181612adb565b92915050565b60008060408385031215612b1e57612b1d6123d9565b5b6000612b2c85828601612af2565b9250506020612b3d8582860161254a565b9150509250929050565b600082825260208201905092915050565b6000612b6382612737565b612b6d8185612b47565b9350612b7d818560208601612753565b612b86816123ed565b840191505092915050565b612b9a8161280c565b82525050565b600061016082019050612bb6600083018e612664565b612bc3602083018d6129e2565b8181036040830152612bd5818c612b58565b90508181036060830152612be9818b612b58565b90508181036080830152612bfd818a612b58565b9050612c0c60a0830189612664565b612c1960c0830188612664565b612c2660e0830187612664565b612c34610100830186612664565b612c42610120830185612664565b612c50610140830184612b91565b9c9b505050505050505050505050565b600081519050919050565b600082825260208201905092915050565b6000819050602082019050919050565b612c958161262e565b82525050565b608082016000820151612cb16000850182612728565b506020820151612cc460208501826126e7565b506040820151612cd760408501826126e7565b506060820151612cea6060850182612c8c565b50505050565b6000612cfc8383612c9b565b60808301905092915050565b6000602082019050919050565b6000612d2082612c60565b612d2a8185612c6b565b9350612d3583612c7c565b8060005b83811015612d66578151612d4d8882612cf0565b9750612d5883612d08565b925050600181019050612d39565b5085935050505092915050565b60006020820190508181036000830152612d8d8184612d15565b905092915050565b6000606082019050612daa6000830186612664565b612db76020830185612664565b612dc46040830184612664565b949350505050565b600061016083016000830151612de560008601826126e7565b506020830151612df86020860182612728565b5060408301518482036040860152612e10828261277d565b91505060608301518482036060860152612e2a828261277d565b91505060808301518482036080860152612e44828261277d565b91505060a0830151612e5960a08601826126e7565b5060c0830151612e6c60c08601826126e7565b5060e0830151612e7f60e08601826126e7565b50610100830151612e946101008601826126e7565b50610120830151612ea96101208601826126e7565b50610140830151612ebe61014086018261281e565b508091505092915050565b60006020820190508181036000830152612ee38184612dcc565b905092915050565b60008060408385031215612f0257612f016123d9565b5b6000612f108582860161254a565b9250506020612f218582860161254a565b9150509250929050565b6000608082019050612f4060008301876129e2565b612f4d6020830186612664565b612f5a6040830185612664565b612f67606083018461263a565b95945050505050565b7f7469746c652063616e277420626520656d707479000000000000000000000000600082015250565b6000612fa6601483612b47565b9150612fb182612f70565b602082019050919050565b60006020820190508181036000830152612fd581612f99565b9050919050565b7f6465736372697074696f6e2063616e277420626520656d707479000000000000600082015250565b6000613012601a83612b47565b915061301d82612fdc565b602082019050919050565b6000602082019050818103600083015261304181613005565b9050919050565b7f696d61676555524c2063616e6e6f7420626520656d7074790000000000000000600082015250565b600061307e601883612b47565b915061308982613048565b602082019050919050565b600060208201905081810360008301526130ad81613071565b9050919050565b7f636f73742063616e6e6f74206265207a65726f00000000000000000000000000600082015250565b60006130ea601383612b47565b91506130f5826130b4565b602082019050919050565b60006020820190508181036000830152613119816130dd565b9050919050565b7f4e487b7100000000000000000000000000000000000000000000000000000000600052602260045260246000fd5b6000600282049050600182168061316757607f821691505b60208210810361317a57613179613120565b5b50919050565b60008190508160005260206000209050919050565b60006020601f8301049050919050565b600082821b905092915050565b6000600883026131e27fffffffffffffffffffffffffffffffffffffffffffffffffffffffffffffffff826131a5565b6131ec86836131a5565b95508019841693508086168417925050509392505050565b6000819050919050565b600061322961322461321f84612529565b613204565b612529565b9050919050565b6000819050919050565b6132438361320e565b61325761324f82613230565b8484546131b2565b825550505050565b600090565b61326c61325f565b61327781848461323a565b505050565b5b8181101561329b57613290600082613264565b60018101905061327d565b5050565b601f8211156132e0576132b181613180565b6132ba84613195565b810160208510156132c9578190505b6132dd6132d585613195565b83018261327c565b50505b505050565b600082821c905092915050565b6000613303600019846008026132e5565b1980831691505092915050565b600061331c83836132f2565b9150826002028217905092915050565b61333582612737565b67ffffffffffffffff81111561334e5761334d6123fe565b5b613358825461314f565b61336382828561329f565b600060209050601f8311600181146133965760008415613384578287015190505b61338e8582613310565b8655506133f6565b601f1984166133a486613180565b60005b828110156133cc578489015182556001820191506020850194506020810190506133a7565b868310156133e957848901516133e5601f8916826132f2565b8355505b6001600288020188555050505b505050505050565b7f4e487b7100000000000000000000000000000000000000000000000000000000600052601160045260246000fd5b600061343882612529565b915061344383612529565b925082820190508082111561345b5761345a6133fe565b5b92915050565b600061346c82612529565b91507fffffffffffffffffffffffffffffffffffffffffffffffffffffffffffffffff820361349e5761349d6133fe565b5b600182019050919050565b7f50524f4a45435420555044415445440000000000000000000000000000000000600082015250565b60006134df600f83612b47565b91506134ea826134a9565b602082019050919050565b600060608201905061350a6000830185612664565b818103602083015261351b816134d2565b905061352a6040830184612664565b9392505050565b7f6f776e6572206f6e6c792063616e2063616c6c20746869732066756e6374696f60008201527f6e00000000000000000000000000000000000000000000000000000000000000602082015250565b600061358d602183612b47565b915061359882613531565b604082019050919050565b600060208201905081810360008301526135bc81613580565b9050919050565b7f4e487b7100000000000000000000000000000000000000000000000000000000600052603260045260246000fd5b7f756e616f74686f72697a64206163636573000000000000000000000000000000600082015250565b6000613628601183612b47565b9150613633826135f2565b602082019050919050565b600060208201905081810360008301526136578161361b565b9050919050565b7f50726f6a656374206e6f206c6f6e676572206578697374730000000000000000600082015250565b6000613694601883612b47565b915061369f8261365e565b602082019050919050565b600060208201905081810360008301526136c381613687565b9050919050565b7f50524f4a454343542044454c4554454400000000000000000000000000000000600082015250565b6000613700601083612b47565b915061370b826136ca565b602082019050919050565b600060608201905061372b6000830185612664565b818103602083015261373c816136f3565b905061374b6040830184612664565b9392505050565b7f756e616f74687572697a656420456e7469747900000000000000000000000000600082015250565b6000613788601383612b47565b915061379382613752565b602082019050919050565b600060208201905081810360008301526137b78161377b565b9050919050565b7f70726f6a65637420206e6f7420666f756e640000000000000000000000000000600082015250565b60006137f4601283612b47565b91506137ff826137be565b602082019050919050565b60006020820190508181036000830152613823816137e7565b9050919050565b7f5469746c652063616e277420626520656d707479000000000000000000000000600082015250565b6000613860601483612b47565b915061386b8261382a565b602082019050919050565b6000602082019050818103600083015261388f81613853565b9050919050565b7f4465736372697074696f6e2063616e277420626520656d707479000000000000600082015250565b60006138cc601a83612b47565b91506138d782613896565b602082019050919050565b600060208201905081810360008301526138fb816138bf565b9050919050565b7f496d6167652055524c2063616e277420626520656d7074790000000000000000600082015250565b6000613938601883612b47565b915061394382613902565b602082019050919050565b600060208201905081810360008301526139678161392b565b9050919050565b7f4574686572206d75737420626520677261746572207468616e205a65726f0000600082015250565b60006139a4601e83612b47565b91506139af8261396e565b602082019050919050565b600060208201905081810360008301526139d381613997565b9050919050565b7f50726f6a656374206e6f7420666f756e64000000000000000000000000000000600082015250565b6000613a10601183612b47565b9150613a1b826139da565b602082019050919050565b60006020820190508181036000830152613a3f81613a03565b9050919050565b7f50726f6a656374206e6f206c6f6e676572206f70656e00000000000000000000600082015250565b6000613a7c601683612b47565b9150613a8782613a46565b602082019050919050565b60006020820190508181036000830152613aab81613a6f565b9050919050565b7f50524f4a454354204241434b4544000000000000000000000000000000000000600082015250565b6000613ae8600e83612b47565b9150613af382613ab2565b602082019050919050565b6000606082019050613b136000830185612664565b8181036020830152613b2481613adb565b9050613b336040830184612664565b9392505050565b7f70726f6a656374206e6f7420666f756e64000000000000000000000000000000600082015250565b6000613b70601183612b47565b9150613b7b82613b3a565b602082019050919050565b60006020820190508181036000830152613b9f81613b63565b9050919050565b6000613bb182612529565b9150613bbc83612529565b9250828203905081811115613bd457613bd36133fe565b5b92915050565b6000613be582612529565b9150613bf083612529565b9250828202613bfe81612529565b91508282048414831517613c1557613c146133fe565b5b5092915050565b7f4e487b7100000000000000000000000000000000000000000000000000000000600052601260045260246000fd5b6000613c5682612529565b9150613c6183612529565b925082613c7157613c70613c1c565b5b828204905092915050565b7f50524f4a4543542050414944204f555400000000000000000000000000000000600082015250565b6000613cb2601083612b47565b9150613cbd82613c7c565b602082019050919050565b6000606082019050613cdd6000830185612664565b8181036020830152613cee81613ca5565b9050613cfd6040830184612664565b9392505050565b600081905092915050565b50565b6000613d1f600083613d04565b9150613d2a82613d0f565b600082019050919050565b6000613d4082613d12565b915081905091905056fea26469706673582212206534daa1e05c8932ccd8889eba01794b5ae25d553a3ddc3e1822b868b206cfd164736f6c63430008110033",
  "linkReferences": {},
  "deployedLinkReferences": {}
}